{
  "contractName": "Transfer",
  "abi": [
    {
      "inputs": [
        {
          "internalType": "address payable",
          "name": "_recipient",
          "type": "address"
        }
      ],
      "name": "sendEther",
      "outputs": [],
      "stateMutability": "payable",
      "type": "function",
      "payable": true
    }
  ],
  "bytecode": "0x608060405234801561001057600080fd5b50610310806100206000396000f3fe60806040526004361061001e5760003560e01c806348c981e214610023575b600080fd5b61003d6004803603810190610038919061019e565b61003f565b005b60003411610082576040517f08c379a00000000000000000000000000000000000000000000000000000000081526004016100799061024e565b60405180910390fd5b600073ffffffffffffffffffffffffffffffffffffffff168173ffffffffffffffffffffffffffffffffffffffff16036100f1576040517f08c379a00000000000000000000000000000000000000000000000000000000081526004016100e8906102ba565b60405180910390fd5b8073ffffffffffffffffffffffffffffffffffffffff166108fc349081150290604051600060405180830381858888f19350505050158015610137573d6000803e3d6000fd5b5050565b600080fd5b600073ffffffffffffffffffffffffffffffffffffffff82169050919050565b600061016b82610140565b9050919050565b61017b81610160565b811461018657600080fd5b50565b60008135905061019881610172565b92915050565b6000602082840312156101b4576101b361013b565b5b60006101c284828501610189565b91505092915050565b600082825260208201905092915050565b7f416d6f756e74206d7573742062652067726561746572207468616e207a65726f60008201527f2e00000000000000000000000000000000000000000000000000000000000000602082015250565b60006102386021836101cb565b9150610243826101dc565b604082019050919050565b600060208201905081810360008301526102678161022b565b9050919050565b7f496e76616c696420726563697069656e7420616464726573732e000000000000600082015250565b60006102a4601a836101cb565b91506102af8261026e565b602082019050919050565b600060208201905081810360008301526102d381610297565b905091905056fea2646970667358221220e4b291d3ac1b05d2777799eb340cbe9371a61ee0aad456413c7f2e8502ebee9d64736f6c63430008130033",
  "immutableReferences": {},
  "source": "// Voting.sol\npragma solidity ^0.8.0;\n\ncontract Transfer {\n    function sendEther(address payable _recipient) public payable {\n        require(msg.value > 0, \"Amount must be greater than zero.\");\n        require(_recipient != address(0), \"Invalid recipient address.\");\n\n        _recipient.transfer(msg.value);\n    }\n}\n",
  "sourcePath": "/Users/sanjay8bisht/workspace/web3/wallet-dapp/contracts/Transfer.sol",
  "compiler": {
    "name": "solc",
    "version": "0.8.19+commit.7dd6d404.Emscripten.clang"
  },
  "schemaVersion": "3.4.14",
  "updatedAt": "2023-07-17T06:45:15.380Z",
  "networkType": "ethereum",
  "devdoc": {
    "kind": "dev",
    "methods": {},
    "version": 1
  },
  "userdoc": {
    "kind": "user",
    "methods": {},
    "version": 1
  }
}