{
  "contractName": "Voting",
  "abi": [
    {
      "inputs": [],
      "stateMutability": "nonpayable",
      "type": "constructor"
    },
    {
      "anonymous": false,
      "inputs": [
        {
          "indexed": true,
          "internalType": "address",
          "name": "voter",
          "type": "address"
        },
        {
          "indexed": false,
          "internalType": "uint256",
          "name": "candidateId",
          "type": "uint256"
        }
      ],
      "name": "VoteCasted",
      "type": "event"
    },
    {
      "inputs": [
        {
          "internalType": "uint256",
          "name": "",
          "type": "uint256"
        }
      ],
      "name": "candidates",
      "outputs": [
        {
          "internalType": "string",
          "name": "name",
          "type": "string"
        },
        {
          "internalType": "uint8",
          "name": "voteCount",
          "type": "uint8"
        }
      ],
      "stateMutability": "view",
      "type": "function",
      "constant": true
    },
    {
      "inputs": [],
      "name": "candidatesCount",
      "outputs": [
        {
          "internalType": "uint8",
          "name": "",
          "type": "uint8"
        }
      ],
      "stateMutability": "view",
      "type": "function",
      "constant": true
    },
    {
      "inputs": [
        {
          "internalType": "address",
          "name": "",
          "type": "address"
        }
      ],
      "name": "voters",
      "outputs": [
        {
          "internalType": "bool",
          "name": "",
          "type": "bool"
        }
      ],
      "stateMutability": "view",
      "type": "function",
      "constant": true
    },
    {
      "inputs": [
        {
          "internalType": "uint256",
          "name": "_candidateId",
          "type": "uint256"
        }
      ],
      "name": "vote",
      "outputs": [],
      "stateMutability": "nonpayable",
      "type": "function"
    },
    {
      "inputs": [],
      "name": "getCandidates",
      "outputs": [
        {
          "components": [
            {
              "internalType": "string",
              "name": "name",
              "type": "string"
            },
            {
              "internalType": "uint8",
              "name": "voteCount",
              "type": "uint8"
            }
          ],
          "internalType": "struct Voting.Candidate[]",
          "name": "",
          "type": "tuple[]"
        }
      ],
      "stateMutability": "view",
      "type": "function",
      "constant": true
    },
    {
      "inputs": [],
      "name": "getCandidateVotes",
      "outputs": [
        {
          "components": [
            {
              "internalType": "string",
              "name": "name",
              "type": "string"
            },
            {
              "internalType": "uint8",
              "name": "voteCount",
              "type": "uint8"
            }
          ],
          "internalType": "struct Voting.Candidate[]",
          "name": "",
          "type": "tuple[]"
        }
      ],
      "stateMutability": "view",
      "type": "function",
      "constant": true
    },
    {
      "inputs": [],
      "name": "winner",
      "outputs": [
        {
          "components": [
            {
              "internalType": "string",
              "name": "name",
              "type": "string"
            },
            {
              "internalType": "uint8",
              "name": "voteCount",
              "type": "uint8"
            }
          ],
          "internalType": "struct Voting.Candidate[]",
          "name": "",
          "type": "tuple[]"
        }
      ],
      "stateMutability": "view",
      "type": "function",
      "constant": true
    },
    {
      "inputs": [
        {
          "internalType": "uint256",
          "name": "candidateId",
          "type": "uint256"
        }
      ],
      "name": "getCandidateVoteCount",
      "outputs": [
        {
          "internalType": "uint256",
          "name": "",
          "type": "uint256"
        }
      ],
      "stateMutability": "view",
      "type": "function",
      "constant": true
    }
  ],
  "bytecode": "0x60806040523480156200001157600080fd5b50620000586040518060400160405280600b81526020017f43616e64696461746520310000000000000000000000000000000000000000008152506200017660201b60201c565b6200009e6040518060400160405280600b81526020017f43616e64696461746520320000000000000000000000000000000000000000008152506200017660201b60201c565b620000e46040518060400160405280600b81526020017f43616e64696461746520330000000000000000000000000000000000000000008152506200017660201b60201c565b6200012a6040518060400160405280600b81526020017f43616e64696461746520340000000000000000000000000000000000000000008152506200017660201b60201c565b620001706040518060400160405280600b81526020017f43616e64696461746520350000000000000000000000000000000000000000008152506200017660201b60201c565b620005fd565b6002600081819054906101000a900460ff168092919062000197906200026e565b91906101000a81548160ff021916908360ff1602179055505060006040518060400160405280838152602001600060ff16815250908060018154018082558091505060019003906000526020600020906002020160009091909190915060008201518160000190816200020b919062000516565b5060208201518160010160006101000a81548160ff021916908360ff160217905550505050565b7f4e487b7100000000000000000000000000000000000000000000000000000000600052601160045260246000fd5b600060ff82169050919050565b60006200027b8262000261565b915060ff820362000291576200029062000232565b5b600182019050919050565b600081519050919050565b7f4e487b7100000000000000000000000000000000000000000000000000000000600052604160045260246000fd5b7f4e487b7100000000000000000000000000000000000000000000000000000000600052602260045260246000fd5b600060028204905060018216806200031e57607f821691505b602082108103620003345762000333620002d6565b5b50919050565b60008190508160005260206000209050919050565b60006020601f8301049050919050565b600082821b905092915050565b6000600883026200039e7fffffffffffffffffffffffffffffffffffffffffffffffffffffffffffffffff826200035f565b620003aa86836200035f565b95508019841693508086168417925050509392505050565b6000819050919050565b6000819050919050565b6000620003f7620003f1620003eb84620003c2565b620003cc565b620003c2565b9050919050565b6000819050919050565b6200041383620003d6565b6200042b6200042282620003fe565b8484546200036c565b825550505050565b600090565b6200044262000433565b6200044f81848462000408565b505050565b5b8181101562000477576200046b60008262000438565b60018101905062000455565b5050565b601f821115620004c65762000490816200033a565b6200049b846200034f565b81016020851015620004ab578190505b620004c3620004ba856200034f565b83018262000454565b50505b505050565b600082821c905092915050565b6000620004eb60001984600802620004cb565b1980831691505092915050565b6000620005068383620004d8565b9150826002028217905092915050565b62000521826200029c565b67ffffffffffffffff8111156200053d576200053c620002a7565b5b62000549825462000305565b620005568282856200047b565b600060209050601f8311600181146200058e576000841562000579578287015190505b620005858582620004f8565b865550620005f5565b601f1984166200059e866200033a565b60005b82811015620005c857848901518255600182019150602085019450602081019050620005a1565b86831015620005e85784890151620005e4601f891682620004d8565b8355505b6001600288020188555050505b505050505050565b611310806200060d6000396000f3fe608060405234801561001057600080fd5b50600436106100885760003560e01c80633477ee2e1161005b5780633477ee2e14610103578063a3ec138d14610134578063b315c59714610164578063dfbf53ae1461019457610088565b80630121b93f1461008d57806306a49fce146100a957806329ab36ec146100c75780632d35a8a2146100e5575b600080fd5b6100a760048036038101906100a29190610ce6565b6101b2565b005b6100b161036d565b6040516100be9190610ebe565b60405180910390f35b6100cf61047b565b6040516100dc9190610ebe565b60405180910390f35b6100ed610613565b6040516100fa9190610eef565b60405180910390f35b61011d60048036038101906101189190610ce6565b610626565b60405161012b929190610f54565b60405180910390f35b61014e60048036038101906101499190610fe2565b6106ef565b60405161015b919061102a565b60405180910390f35b61017e60048036038101906101799190610ce6565b61070f565b60405161018b9190611054565b60405180910390f35b61019c610794565b6040516101a99190610ebe565b60405180910390f35b6000811180156101d45750600260009054906101000a900460ff1660ff168111155b6101dd57600080fd5b600160003373ffffffffffffffffffffffffffffffffffffffff1673ffffffffffffffffffffffffffffffffffffffff16815260200190815260200160002060009054906101000a900460ff161561026a576040517f08c379a0000000000000000000000000000000000000000000000000000000008152600401610261906110bb565b60405180910390fd5b6000818154811061027e5761027d6110db565b5b9060005260206000209060020201600101600081819054906101000a900460ff16809291906102ac90611139565b91906101000a81548160ff021916908360ff1602179055505060018060003373ffffffffffffffffffffffffffffffffffffffff1673ffffffffffffffffffffffffffffffffffffffff16815260200190815260200160002060006101000a81548160ff0219169083151502179055503373ffffffffffffffffffffffffffffffffffffffff167fd0e6c39f2e086dc49f1524b47725526a56945cd1ff661f37976f1725a1e56986826040516103629190611054565b60405180910390a250565b60606000805480602002602001604051908101604052809291908181526020016000905b8282101561047257838290600052602060002090600202016040518060400160405290816000820180546103c490611191565b80601f01602080910402602001604051908101604052809291908181526020018280546103f090611191565b801561043d5780601f106104125761010080835404028352916020019161043d565b820191906000526020600020905b81548152906001019060200180831161042057829003601f168201915b505050505081526020016001820160009054906101000a900460ff1660ff1660ff168152505081526020019060010190610391565b50505050905090565b60606000808054905067ffffffffffffffff81111561049d5761049c6111c2565b5b6040519080825280602002602001820160405280156104d657816020015b6104c3610c8e565b8152602001906001900390816104bb5790505b50905060005b6000805490508160ff16101561060b5760006001826104fb91906111f1565b60ff168154811061050f5761050e6110db565b5b906000526020600020906002020160405180604001604052908160008201805461053890611191565b80601f016020809104026020016040519081016040528092919081815260200182805461056490611191565b80156105b15780601f10610586576101008083540402835291602001916105b1565b820191906000526020600020905b81548152906001019060200180831161059457829003601f168201915b505050505081526020016001820160009054906101000a900460ff1660ff1660ff1681525050828260ff16815181106105ed576105ec6110db565b5b6020026020010181905250808061060390611139565b9150506104dc565b508091505090565b600260009054906101000a900460ff1681565b6000818154811061063657600080fd5b906000526020600020906002020160009150905080600001805461065990611191565b80601f016020809104026020016040519081016040528092919081815260200182805461068590611191565b80156106d25780601f106106a7576101008083540402835291602001916106d2565b820191906000526020600020905b8154815290600101906020018083116106b557829003601f168201915b5050505050908060010160009054906101000a900460ff16905082565b60016020528060005260406000206000915054906101000a900460ff1681565b600080805490508210610757576040517f08c379a000000000000000000000000000000000000000000000000000000000815260040161074e90611272565b60405180910390fd5b6000828154811061076b5761076a6110db565b5b906000526020600020906002020160010160009054906101000a900460ff1660ff169050919050565b60606000600367ffffffffffffffff8111156107b3576107b26111c2565b5b6040519080825280602002602001820160405280156107ec57816020015b6107d9610c8e565b8152602001906001900390816107d15790505b5090506000808054905067ffffffffffffffff81111561080f5761080e6111c2565b5b60405190808252806020026020018201604052801561084857816020015b610835610c8e565b81526020019060019003908161082d5790505b509050600080600081548110610861576108606110db565b5b906000526020600020906002020160405180604001604052908160008201805461088a90611191565b80601f01602080910402602001604051908101604052809291908181526020018280546108b690611191565b80156109035780601f106108d857610100808354040283529160200191610903565b820191906000526020600020905b8154815290600101906020018083116108e657829003601f168201915b505050505081526020016001820160009054906101000a900460ff1660ff1660ff1681525050905080826000815181106109405761093f6110db565b5b60200260200101819052506000600190506000600190505b600080549050811015610c2157826020015160ff1660008281548110610981576109806110db565b5b906000526020600020906002020160010160009054906101000a900460ff1660ff161115610abe57600081815481106109bd576109bc6110db565b5b90600052602060002090600202016040518060400160405290816000820180546109e690611191565b80601f0160208091040260200160405190810160405280929190818152602001828054610a1290611191565b8015610a5f5780601f10610a3457610100808354040283529160200191610a5f565b820191906000526020600020905b815481529060010190602001808311610a4257829003601f168201915b505050505081526020016001820160009054906101000a900460ff1660ff1660ff16815250509250606093508284600081518110610aa057610a9f6110db565b5b60200260200101819052508180610ab690611139565b925050610c0e565b826020015160ff1660008281548110610ada57610ad96110db565b5b906000526020600020906002020160010160009054906101000a900460ff1660ff1603610c0d5760008181548110610b1557610b146110db565b5b9060005260206000209060020201604051806040016040529081600082018054610b3e90611191565b80601f0160208091040260200160405190810160405280929190818152602001828054610b6a90611191565b8015610bb75780601f10610b8c57610100808354040283529160200191610bb7565b820191906000526020600020905b815481529060010190602001808311610b9a57829003601f168201915b505050505081526020016001820160009054906101000a900460ff1660ff1660ff1681525050848360ff1681518110610bf357610bf26110db565b5b60200260200101819052508180610c0990611139565b9250505b5b8080610c1990611292565b915050610958565b5060005b60038160ff161015610c8357838160ff1681518110610c4757610c466110db565b5b6020026020010151858260ff1681518110610c6557610c646110db565b5b60200260200101819052508080610c7b90611139565b915050610c25565b508394505050505090565b604051806040016040528060608152602001600060ff1681525090565b600080fd5b6000819050919050565b610cc381610cb0565b8114610cce57600080fd5b50565b600081359050610ce081610cba565b92915050565b600060208284031215610cfc57610cfb610cab565b5b6000610d0a84828501610cd1565b91505092915050565b600081519050919050565b600082825260208201905092915050565b6000819050602082019050919050565b600081519050919050565b600082825260208201905092915050565b60005b83811015610d79578082015181840152602081019050610d5e565b60008484015250505050565b6000601f19601f8301169050919050565b6000610da182610d3f565b610dab8185610d4a565b9350610dbb818560208601610d5b565b610dc481610d85565b840191505092915050565b600060ff82169050919050565b610de581610dcf565b82525050565b60006040830160008301518482036000860152610e088282610d96565b9150506020830151610e1d6020860182610ddc565b508091505092915050565b6000610e348383610deb565b905092915050565b6000602082019050919050565b6000610e5482610d13565b610e5e8185610d1e565b935083602082028501610e7085610d2f565b8060005b85811015610eac5784840389528151610e8d8582610e28565b9450610e9883610e3c565b925060208a01995050600181019050610e74565b50829750879550505050505092915050565b60006020820190508181036000830152610ed88184610e49565b905092915050565b610ee981610dcf565b82525050565b6000602082019050610f046000830184610ee0565b92915050565b600082825260208201905092915050565b6000610f2682610d3f565b610f308185610f0a565b9350610f40818560208601610d5b565b610f4981610d85565b840191505092915050565b60006040820190508181036000830152610f6e8185610f1b565b9050610f7d6020830184610ee0565b9392505050565b600073ffffffffffffffffffffffffffffffffffffffff82169050919050565b6000610faf82610f84565b9050919050565b610fbf81610fa4565b8114610fca57600080fd5b50565b600081359050610fdc81610fb6565b92915050565b600060208284031215610ff857610ff7610cab565b5b600061100684828501610fcd565b91505092915050565b60008115159050919050565b6110248161100f565b82525050565b600060208201905061103f600083018461101b565b92915050565b61104e81610cb0565b82525050565b60006020820190506110696000830184611045565b92915050565b7f416c726561647920766f74656400000000000000000000000000000000000000600082015250565b60006110a5600d83610f0a565b91506110b08261106f565b602082019050919050565b600060208201905081810360008301526110d481611098565b9050919050565b7f4e487b7100000000000000000000000000000000000000000000000000000000600052603260045260246000fd5b7f4e487b7100000000000000000000000000000000000000000000000000000000600052601160045260246000fd5b600061114482610dcf565b915060ff82036111575761115661110a565b5b600182019050919050565b7f4e487b7100000000000000000000000000000000000000000000000000000000600052602260045260246000fd5b600060028204905060018216806111a957607f821691505b6020821081036111bc576111bb611162565b5b50919050565b7f4e487b7100000000000000000000000000000000000000000000000000000000600052604160045260246000fd5b60006111fc82610dcf565b915061120783610dcf565b9250828201905060ff8111156112205761121f61110a565b5b92915050565b7f496e76616c69642063616e646964617465204944000000000000000000000000600082015250565b600061125c601483610f0a565b915061126782611226565b602082019050919050565b6000602082019050818103600083015261128b8161124f565b9050919050565b600061129d82610cb0565b91507fffffffffffffffffffffffffffffffffffffffffffffffffffffffffffffffff82036112cf576112ce61110a565b5b60018201905091905056fea2646970667358221220eea296d4205f7d5b002b1fdf8303c80717cd18ba4e34c46fce55e06361ee442b64736f6c63430008130033",
  "immutableReferences": {},
  "source": "// Voting.sol\npragma solidity ^0.8.0;\n\ncontract Voting {\n    struct Candidate {\n        string name;\n        uint8 voteCount;\n    }\n\n    Candidate[] public candidates;\n    mapping(address => bool) public voters;\n    uint8 public candidatesCount;\n\n    event VoteCasted(address indexed voter, uint candidateId);\n\n    constructor() {\n        addCandidate(\"Candidate 1\");\n        addCandidate(\"Candidate 2\");\n        addCandidate(\"Candidate 3\");\n        addCandidate(\"Candidate 4\");\n        addCandidate(\"Candidate 5\");\n    }\n\n    function addCandidate(string memory _name) private {\n        candidatesCount++;\n        candidates.push(Candidate(_name, 0));\n    }\n\n    function vote(uint _candidateId) public {\n        require(_candidateId > 0 && _candidateId <= candidatesCount);\n        require(!voters[msg.sender], \"Already voted\");\n\n        candidates[_candidateId].voteCount++;\n        voters[msg.sender] = true;\n\n        emit VoteCasted(msg.sender, _candidateId);\n    }\n\n    function getCandidates() public view returns (Candidate[] memory) {\n        return candidates;\n    }\n\n    function getCandidateVotes() public view returns (Candidate[] memory) {\n        Candidate[] memory keys = new Candidate[](candidates.length);\n        for (uint8 i = 0; i < candidates.length; i++) {\n            keys[i] = candidates[i + 1];\n        }\n        return keys;\n    }\n\n    function winner() public view returns (Candidate[] memory) {\n        Candidate[] memory topThree = new Candidate[](3);\n        Candidate[] memory result = new Candidate[](candidates.length);\n        Candidate memory max = candidates[0];\n        result[0] = max;\n        uint8 index = 1;\n\n        for (uint i = 1; i < candidates.length; i++) {\n            if (candidates[i].voteCount > max.voteCount) {\n                max = candidates[i];\n                delete result;\n                result[0] = max;\n                index++;\n            } else if (candidates[i].voteCount == max.voteCount) {\n                result[index] = candidates[i];\n                index++;\n            }\n        }\n\n        for (uint8 i = 0; i < 3; i++) {\n            topThree[i] = result[i];\n        }\n        return topThree;\n    }\n\n    function getCandidateVoteCount(\n        uint candidateId\n    ) public view returns (uint) {\n        require(candidateId < candidates.length, \"Invalid candidate ID\");\n        return candidates[candidateId].voteCount;\n    }\n}\n",
  "sourcePath": "/Users/sanjay8bisht/workspace/web3/voting-dapp/contracts/Voting.sol",
  "compiler": {
    "name": "solc",
    "version": "0.8.19+commit.7dd6d404.Emscripten.clang"
  },
  "schemaVersion": "3.4.14",
  "updatedAt": "2023-07-15T19:53:35.484Z",
  "networkType": "ethereum",
  "devdoc": {
    "kind": "dev",
    "methods": {},
    "version": 1
  },
  "userdoc": {
    "kind": "user",
    "methods": {},
    "version": 1
  }
}